:020000040800F2
:1000000000000220A1320008E9290008EB290008BD
:10001000ED290008EF290008F12900080000000080
:1000200000000000000000000000000061890008DE
:10003000F329000800000000018A0008658A000812
:10004000F1320008F1320008F1320008F132000804
:10005000F1320008F1320008F1320008F1320008F4
:10006000F1320008F1320008F1320008F1320008E4
:10007000F5290008F1320008F1320008F1320008D9
:10008000F1320008F1320008F1320008F1320008C4
:10009000052A0008F1320008F1320008F1320008A8
:1000A000F1320008F1320008F1320008F1320008A4
:1000B000F1320008F1320008F1320008F132000894
:1000C000F1320008F1320008F1320008F132000884
:1000D000F1320008152A0008F13200082D2A000824
:1000E000F1320008F1320008F1320008F132000864
:1000F000F1320008F1320008F1320008F132000854
:10010000F1320008F1320008F1320008F132000843
:10011000F1320008F1320008412A0008F1320008EB
:10012000F1320008F1320008512A0008F1320008CB
:10013000F1320008F1320008F1320008F132000813
:10014000612A0008F1320008F1320008712A000823
:10015000F1320008F1320008812A0008F13200086B
:10016000F1320008F1320008F1320008F1320008E3
:10017000F1320008F1320008F132000800000000FE
:08018000F1320008F132000821
:1001C00010B5054C237833B9044B13B10448AFF391
:1001D00000800123237010BDC80A00200000000029
:1001E000CC39010808B5034B1BB103490348AFF3F1
:1001F000008008BD00000000CC0A0020CC390108B6
:1002000081F0004102E000BF83F0004330B54FEAC7
:1002100041044FEA430594EA050F08BF90EA020F34
:100220001FBF54EA000C55EA020C7FEA645C7FEAC7
:10023000655C00F0E2804FEA5454D4EB5555B8BFEA
:100240006D420CDD2C4480EA020281EA030382EA5B
:10025000000083EA010180EA020281EA0303362DED
:1002600088BF30BD11F0004F4FEA01314FF4801CC0
:100270004CEA113102D0404261EB410113F0004FD2
:100280004FEA03334CEA133302D0524263EB430389
:1002900094EA050F00F0A780A4F10104D5F1200E27
:1002A0000DDB02FA0EFC22FA05F2801841F1000182
:1002B00003FA0EF2801843FA05F359410EE0A5F156
:1002C00020050EF1200E012A03FA0EFC28BF4CF087
:1002D000020C43FA05F3C01851EBE37101F000453D
:1002E00007D54FF0000EDCF1000C7EEB00006EEB4A
:1002F0000101B1F5801F1BD3B1F5001F0CD34908D4
:100300005FEA30004FEA3C0C04F101044FEA44522A
:1003100012F5800F80F09A80BCF1004F08BF5FEAB1
:10032000500C50F1000041EB045141EA050130BD91
:100330005FEA4C0C404141EB0101013C28BFB1F5A3
:10034000801FE9D291F0000F04BF01460020B1FAEE
:1003500081F308BF2033A3F10B03B3F120020CDAC1
:100360000C3208DD02F1140CC2F10C0201FA0CF09F
:1003700021FA02F10CE002F11402D8BFC2F1200C04
:1003800001FA02F120FA0CFCDCBF41EA0C019040BA
:10039000E41AA2BF01EB0451294330BD6FEA040403
:1003A0001F3C1CDA0C340EDC04F11404C4F12002EE
:1003B00020FA04F001FA02F340EA030021FA04F300
:1003C00045EA030130BDC4F10C04C4F1200220FA57
:1003D00002F001FA04F340EA0300294630BD21FA95
:1003E00004F0294630BD94F0000F83F4801306BF5B
:1003F00081F480110134013D4EE77FEA645C18BF4F
:100400007FEA655C29D094EA050F08BF90EA020FE5
:1004100005D054EA000C04BF1946104630BD91EADD
:10042000030F1EBF0021002030BD5FEA545C05D1E0
:100430004000494128BF41F0004130BD14F580041F
:100440003CBF01F5801130BD01F0004545F0FE4193
:1004500041F470014FF0000030BD7FEA645C1ABFC8
:10046000194610467FEA655C1CBF0B46024650EAFF
:10047000013406BF52EA033591EA030F41F400212B
:1004800030BD00BF90F0000F04BF0021704730B5B1
:100490004FF4806404F132044FF000054FF0000186
:1004A00050E700BF90F0000F04BF0021704730B547
:1004B0004FF4806404F1320410F0004548BF40421C
:1004C0004FF000013EE700BF42004FEAE2014FEA71
:1004D00031014FEA02701FBF12F07F4393F07F4F4C
:1004E00081F06051704732F07F4208BF704793F04F
:1004F0007F4F04BF41F40021704730B54FF4607462
:1005000001F0004521F000411CE700BF50EA010264
:1005100008BF704730B54FF000050AE050EA01020D
:1005200008BF704730B511F0004502D5404261EB7D
:1005300041014FF4806404F132045FEA915C3FF4BE
:10054000D8AE4FF003025FEADC0C18BF03325FEA5B
:10055000DC0C18BF033202EBDC02C2F1200300FA0C
:1005600003FC20FA02F001FA03FE40EA0E0021FA31
:1005700002F11444BDE600BF70B54FF0FF0C4CF41F
:10058000E06C1CEA11541DBF1CEA135594EA0C0FD1
:1005900095EA0C0F00F0DEF82C4481EA030621EA0C
:1005A0004C5123EA4C5350EA013518BF52EA033547
:1005B00041F4801143F4801338D0A0FB02CE4FF0F9
:1005C0000005E1FB02E506F00042E0FB03E54FF029
:1005D0000006E1FB03569CF0000F18BF4EF0010E21
:1005E000A4F1FF04B6F5007F64F5407404D25FEA1D
:1005F0004E0E6D4146EB060642EAC62141EA5551D0
:100600004FEAC52040EA5E504FEACE2EB4F1FD0C11
:1006100088BFBCF5E06F1ED8BEF1004F08BF5FEA8F
:10062000500E50F1000041EB045170BD06F0004641
:1006300046EA010140EA020081EA0301B4EB5C04EE
:10064000C2BFD4EB0C0541EA045170BD41F48011E6
:100650004FF0000E013C00F3AB8014F1360FDEBF0B
:10066000002001F0004170BDC4F10004203C35DAE7
:100670000C341BDC04F11404C4F1200500FA05F36A
:1006800020FA04F001FA05F240EA020001F000420B
:1006900021F0004110EBD37021FA04F642EB060181
:1006A0005EEA430E08BF20EAD37070BDC4F10C04AB
:1006B000C4F1200500FA04F320FA05F001FA04F26F
:1006C00040EA020001F0004110EBD37041F100015B
:1006D0005EEA430E08BF20EAD37070BDC4F1200566
:1006E00000FA05F24EEA020E20FA04F301FA05F2CE
:1006F00043EA020321FA04F001F0004121FA04F276
:1007000020EA020000EBD3705EEA430E08BF20EA45
:10071000D37070BD94F0000F0FD101F0004640007F
:1007200041EB010111F4801F08BF013CF7D041EA01
:10073000060195F0000F18BF704703F00046520005
:1007400043EB030313F4801F08BF013DF7D043EAD6
:100750000603704794EA0C0F0CEA135518BF95EA8C
:100760000C0F0CD050EA410618BF52EA4306D1D113
:1007700081EA030101F000414FF0000070BD50EA32
:10078000410606BF1046194652EA430619D094EABC
:100790000C0F02D150EA013613D195EA0C0F05D1A6
:1007A00052EA03361CBF104619460AD181EA0301FA
:1007B00001F0004141F0FE4141F470014FF00000B2
:1007C00070BD41F0FE4141F4780170BD70B54FF04D
:1007D000FF0C4CF4E06C1CEA11541DBF1CEA1355CD
:1007E00094EA0C0F95EA0C0F00F0A7F8A4EB0504AF
:1007F00081EA030E52EA03354FEA013100F08880A6
:100800004FEA03334FF0805545EA131343EA12636E
:100810004FEA022245EA111545EA10654FEA002623
:100820000EF000419D4208BF964244F1FD0404F5DC
:10083000407402D25B084FEA3202B61A65EB030538
:100840005B084FEA32024FF480104FF4002CB6EBF5
:10085000020E75EB030E22BFB61A754640EA0C0075
:100860005B084FEA3202B6EB020E75EB030E22BFB5
:10087000B61A754640EA5C005B084FEA3202B6EBF6
:10088000020E75EB030E22BFB61A754640EA9C00B5
:100890005B084FEA3202B6EB020E75EB030E22BF85
:1008A000B61A754640EADC0055EA060E18D04FEA43
:1008B000051545EA16754FEA06164FEAC30343EAE3
:1008C00052734FEAC2025FEA1C1CC0D111F4801FB0
:1008D0000BD141EA00014FF000004FF0004CB6E7A9
:1008E00011F4801F04BF01430020B4F1FD0C88BF48
:1008F000BCF5E06F3FF6AFAEB5EB030C04BFB6EB53
:10090000020C5FEA500C50F1000041EB045170BD45
:100910000EF0004E4EEA113114EB5C04C2BFD4EB72
:100920000C0541EA045170BD41F480114FF0000EF6
:10093000013C90E645EA060E8DE60CEA135594EA72
:100940000C0F08BF95EA0C0F3FF43BAF94EA0C0F75
:100950000AD150EA01347FF434AF95EA0C0F7FF4EA
:1009600025AF104619462CE795EA0C0F06D152EA3E
:1009700003353FF4FDAE1046194622E750EA410622
:1009800018BF52EA43067FF4C5AE50EA41047FF433
:100990000DAF52EA43057FF4EBAE12E74FF0FF3C98
:1009A00006E000BF4FF0010C02E000BF4FF0010C69
:1009B0004DF804CD4FEA410C7FEA6C5C4FEA430CE2
:1009C00018BF7FEA6C5C1BD001B050EA410C0CBF31
:1009D00052EA430C91EA030F02BF90EA020F002093
:1009E000704710F1000F91EA030F58BF994208BFFA
:1009F00090422CBFD8176FEAE37040F001007047B7
:100A00004FEA410C7FEA6C5C02D150EA013C07D10D
:100A10004FEA430C7FEA6C5CD6D152EA033CD3D058
:100A20005DF8040B704700BF8446104662468C4652
:100A30001946634600E000BF01B5FFF7B7FF002885
:100A400048BF10F1000F01BD4DF808EDFFF7F4FFAE
:100A50000CBF012000205DF808FB00BF4DF808ED39
:100A6000FFF7EAFF34BF012000205DF808FB00BF5C
:100A70004DF808EDFFF7E0FF94BF012000205DF87E
:100A800008FB00BF4DF808EDFFF7CEFF94BF012033
:100A900000205DF808FB00BF4DF808EDFFF7C4FF2C
:100AA00034BF012000205DF808FB00BF4A0011D2CE
:100AB00012F5001211D20DD56FF47873B3EB6252B8
:100AC0000ED44FEAC12343F0004343EA505323FAC4
:100AD00002F070474FF00000704750EA013002D139
:100AE0004FF0FF3070474FF0000070474FEA41026F
:100AF000B2F1E04324BFB3F5001CDCF1FE5C0DD97C
:100B000001F0004C4FEAC0024CEA5070B2F1004FC5
:100B100040EB830008BF20F00100704711F0804FC8
:100B200021D113F13872BCBF01F00040704741F48D
:100B300080114FEA5252C2F11802C2F1200C10FA91
:100B40000CF320FA02F018BF40F001004FEAC12375
:100B50004FEAD32303FA0CFC40EA0C0023FA02F319
:100B60004FEA4303CCE77FEA625307D150EA0133EF
:100B70001EBF4FF0FE4040F44000704701F00040BF
:100B800040F0FE4040F40000704700BF53B94AB93E
:100B9000002908BF00281CBF4FF0FF314FF0FF3085
:100BA00001F0DEB8ADF1080C6DE904CE00F006F8F6
:100BB000DDF804E0DDE9022304B070472DE9F047D9
:100BC000089D04468E46002B4DD18A42944669D931
:100BD000B2FA82F252B101FA02F3C2F1200120FA14
:100BE00001F10CFA02FC41EA030E94404FEA1C4862
:100BF000210CBEFBF8F61FFA8CF708FB16E341EA5E
:100C0000034306FB07F199420AD91CEB030306F1E3
:100C1000FF3080F01F81994240F21C81023E634404
:100C20005B1AA4B2B3FBF8F008FB103344EA0344A8
:100C300000FB07F7A7420AD91CEB040400F1FF33BD
:100C400080F00A81A74240F207816444023840EAFA
:100C50000640E41B00261DB1D4400023C5E9004333
:100C60003146BDE8F0878B4209D9002D00F0EF80B6
:100C70000026C5E9000130463146BDE8F087B3FAE9
:100C800083F6002E4AD18B4202D3824200F2F980D1
:100C9000841A61EB030301209E46002DE0D0C5E9D4
:100CA000004EDDE702B9FFDEB2FA82F2002A40F020
:100CB0009280A1EB0C014FEA1C471FFA8CFE012623
:100CC000200CB1FBF7F307FB131140EA01410EFBC7
:100CD00003F0884208D91CEB010103F1FF3802D26E
:100CE000884200F2CB804346091AA4B2B1FBF7F068
:100CF00007FB101144EA01440EFB00FEA64508D98B
:100D00001CEB040400F1FF3102D2A64500F2BB80C7
:100D10000846A4EB0E0440EA03409CE7C6F1200716
:100D2000B34022FA07FC4CEA030C20FA07F401FA5C
:100D300006F31C43F9404FEA1C4900FA06F3B1FBE5
:100D4000F9F8200C1FFA8CFE09FB181140EA01414A
:100D500008FB0EF0884202FA06F20BD91CEB0101E7
:100D600008F1FF3A80F08880884240F28580A8F13F
:100D700002086144091AA4B2B1FBF9F009FB101191
:100D800044EA014100FB0EFE8E4508D91CEB01012F
:100D900000F1FF346CD28E456AD90238614440EAD2
:100DA0000840A0FB0294A1EB0E01A142C846A64652
:100DB00056D353D05DB1B3EB080261EB0E0101FADB
:100DC00007F722FA06F3F1401F43C5E90071002638
:100DD0003146BDE8F087C2F12003D8400CFA02FC8E
:100DE00021FA03F3914001434FEA1C471FFA8CFE9E
:100DF000B3FBF7F007FB10360B0C43EA064300FB8E
:100E00000EF69E4204FA02F408D91CEB030300F12B
:100E1000FF382FD29E422DD9023863449B1B89B2E2
:100E2000B3FBF7F607FB163341EA034106FB0EF36B
:100E30008B4208D91CEB010106F1FF3816D28B4218
:100E400014D9023E6144C91A46EA004638E72E46E4
:100E5000284605E70646E3E61846F8E64B45A9D2DC
:100E6000B9EB020864EB0C0E0138A3E74646EAE74B
:100E7000204694E74046D1E7D0467BE7023B6144F9
:100E800032E7304609E76444023842E703685A0013
:100E90004CBF43F0004323F000431844704700BFA9
:100EA0002DE9F84329B34F1E044615463E464FF040
:100EB000000808EB060101EBD171491004EBC109F0
:100EC0004846FFF7E3FF0346C80008308F4220443E
:100ED00009D0AB4209D8FFF7D9FF0138A8420AD29E
:100EE00001F10108E5E7AB4205D9884501D04E1E66
:100EF000DFE74FF000094846BDE8F883012807D036
:100F0000022807D0044B00280CBF18460020704769
:100F10000248704702487047D5150008D9150008E7
:100F2000DD15000830B5234B83B004468D1E3BB35E
:100F300001A92846AFF30080E8B101992A46FFF7DE
:100F4000AFFF0146B8B1FFF7A1FF4B68A064012BCA
:100F50002CD0002B01F1040024DBFFF797FF0023C6
:100F6000C4E913030368002B11DBFFF78FFF206137
:100F7000002003B030BD00230920236103B030BD41
:100F80000D4B0E49C91AC91018460191D6E7C3F393
:100F90000360FFF7B3FF0028206114BF0020092081
:100FA00003B030BD0123C4E91303DBE70023236151
:100FB0000520DEE700000000C04301087845010875
:100FC0000368DA0710B5044606D49B0700F1480011
:100FD00009D500F05BFC2368590709D51A070ED51F
:100FE000DB0613D510BD00F049FC23685907F5D482
:100FF00004F1D00000F052FC23681A07F0D404F585
:10100000A87000F053FC2368DB06EBD404F5E8700D
:10101000BDE8104000F08EBC092070470346006810
:1010200000B11844704700BF704700BF70B5044658
:101030000E46316C2046FFF775FF054688B9326CC5
:101040006261236932462146012098470828F0D082
:10105000072806D12846316CFFF7E6FF301D00F067
:1010600001FC0AF001FE00BF2DE9F0470D1DD0F88C
:101070000C80D0F81890074614460FCDADF5727D60
:101080000DF10C0CACE80F000FCDACE80F000FCD4C
:10109000ACE80F0095E80F0002AE4FF0000E8CE8B0
:1010A0000F00C6F800E020E0336C7B614FF4F07273
:1010B00031467AA800F056FE3B697AAA3946504676
:1010C0009847889B73642146CDE9006905463B46F5
:1010D0003A460120C0470446E0B94FF4F0727AA9BD
:1010E000304600F03FFE082D1AD1316C3846FFF72C
:1010F00019FF09345FFA84FA05460028D4D0B36B8F
:1011000073643A46CDE900693B464AF0100101207C
:10111000C04700B1092528460DF5727DBDE8F0876E
:10112000072DF7D12046316CFFF77EFF03A800F0B2
:1011300099FB00BF406C7047F0B5CB6B0B6401F1BD
:10114000040C0E460546BCE80F00F9B001AC0FC414
:10115000BCE80F000FC4BCE80F000FC49CE80F00F0
:101160004FF0FF3784E80F00009706E02B696A46CE
:10117000294698470828044608D110992846FFF7C1
:10118000D1FE0028F2D0092079B0F0BD6846FFF703
:1011900017FF062CF7D131462846FFF747FF00BF5F
:1011A000C160D96B82611964002219465CE700BFF7
:1011B00070B5C66843690B64AEB903690A46044654
:1011C0000D46014602209847072805D008280FD170
:1011D00029462046FFF72AFF3046296CFFF724FFF7
:1011E000281D00F03FFB0122FFF73EFF0AF03CFD07
:1011F0000AF03AFDC2681AB1CA6B0A64002233E7EA
:101200009AE700BF704700BF836801460BB1012019
:1012100018477047012912D009D873B90F2A0CD882
:1012200000EB820218465368009A13607047033936
:10123000012994BF01200220704702207047084610
:10124000704700BF00B585B00A46002303A900918E
:101250001946FFF7DFFF039805B05DF804FB00BFF8
:10126000012912D009D873B90F2A0CD800EB8200DB
:10127000009A12684260184670470339012994BFEA
:10128000012002207047022070470846704700BFC7
:1012900010B584B0002303AC039200940A461946AB
:1012A000FFF7DEFF04B010BD70B5D36B136402F11D
:1012B000040C05460C46BCE80F00ADF50E7D0DF1A3
:1012C0005C0EAEE80F00BCE80F00AEE80F00BCE813
:1012D0000F00AEE80F009CE80F004FF0FF368EE8DD
:1012E0000F00169610E0FFF7D3FF214616A8A84777
:1012F000034616AA6946082083B9049B9847052827
:1013000006460CD0092809D026996846FFF70AFE40
:1013100003466A460C2116A8002BE4D0092616A81D
:10132000FFF74EFE30460DF50E7D70BD2DE9F04FF6
:10133000CC6C89B01E4654F8043B06940D46174603
:1013400000F00308002E79D01A0C1B0405938DF8C9
:101350001D200223D2B204EB82048DF81C302B6DC9
:10136000B8F1020F08BFAC6B13F001030CD005A954
:10137000384600F079FB18B9082009B0BDE8F08FB5
:10138000092009B0BDE8F08FD4F800A0BAF1000F31
:10139000EDD0019300F008030293022E4AD0B4F876
:1013A00000A0B4F802900434AB6C29F0010B0F21BB
:1013B00038469B44FFF746FF834539D82AF001039E
:1013C0009B44834594BF002001204FEA490303F06A
:1013D00002030AF0010A43EA0A03012B49D0022B57
:1013E00032D0002BCCD1B8F1000F02D0002840F051
:1013F000CD800434D4F800A0BAF1000FCDD105A9F6
:10140000384600F031FB0028BAD1019B002BB3D045
:101410000F213846FFF716FF0E2102463846FFF728
:1014200037FF38466A4A0F21FFF732FF0720A8E747
:101430000020CAE7D4F804900834B5E71B020593EE
:101440000323ADF81C308AE7236823F0004BB8F182
:10145000000F45D128B1029A002A5CD0BBF1000FE1
:1014600074D0002B00DA04340BF1010B04EB8B0475
:10147000C0E7B8F1000F19D1B0B163682268991CB8
:101480004FEAD2723FF47CAF05F158010133049169
:1014900000F09080201DFFF7C1FD04AB01462846F7
:1014A000AFF3008000285BD10834A3E70D21384654
:1014B000D5F82090FFF7C6FE8145F5D1AB6A9C4276
:1014C000F2D12046FFF7E2FC0F2102463846FFF733
:1014D000DFFE38462A460021FFF7DAFE072050E7F4
:1014E0000D213846D5F82090FFF7ACFE814501D09C
:1014F0002368B6E7AB6A9C42FAD104230022C5E90F
:101500000B23E318C5F828B06B632368002B59DB65
:1015100001230193A8E705F15803CDF80C8004F1ED
:10152000040AB04691461E460EE050460496FFF768
:1015300075FD0022014604AB284609F101090AF1B4
:10154000040AAFF30080E0B9D945EED10D21384649
:10155000FFF778FE049BAC62C5E90803062010E79C
:1015600081460D213846FFF76DFEB9F1020F286262
:1015700025D12B46049A43F82C2F6B62AC620620CF
:10158000FFE646462368DDF80C806AE72046FFF751
:101590007DFC04340246AC6328461446AFF3008059
:1015A00000283FF4EDAE384622460F21FFF770FECB
:1015B0000720E6E60D213846FFF744FE2862049B2B
:1015C0006B62DBE70BF1010004EB80007AE700BF00
:1015D000000000000023A9E60123A7E60223A5E6F8
:1015E0002DE9F0430646C3B015461C46042900F217
:1015F000BF80DFE801F09E57BD2D0300002C40F0B6
:10160000B780102A00F2B4800368D80600F1F98090
:1016100020AF384600F098F9B46B394600234FF0FC
:10162000010C0CFA03F22A42204603F1010303D015
:1016300050F8042B0A600446042B01F10401F0D198
:101640003846B46300F076F9002043B0BDE8F0837B
:10165000032C40F08D8094B204EB1243102B4FEA20
:10166000124500F2858003681F0700F1D28020AF89
:10167000384600F03DF9B26B07EBC50154B10B469B
:10168000D01A01EBC401E4001D5843F8045B8B42FF
:10169000FAD122443846B26300F008F9002043B082
:1016A000BDE8F083012C4FEA124895B25CD0052CBE
:1016B0005ED108EB0509B9F1200F59D8B8F10F0F29
:1016C00079D9A946002D40F08A80B36B6DB320AF65
:1016D0004FF0000907EBC807043F03EBC50553F8BB
:1016E000041B47F8041FAB42F9D1B9F1000F0FD02A
:1016F0006F464146102938BF102107EBC1018439DC
:1017000003EBC90553F8040B41F8040FAB42F9D1C0
:10171000012C00F08680B8F10F0FB56347D9B9F1FD
:10172000000F02D0684600F0B9F8002043B0BDE8D1
:10173000F083ECB9806B23461FFA82FC0124371D2D
:1017400004FA03F212EA0C0F014604D051F8042BFC
:1017500047F8232008460133102BF1D115F400552A
:10176000E3D1B063284604E008EB0503102B03D94E
:10177000022043B0BDE8F083B8F10F0FF8D833680A
:10178000DA0706D5304623F0030340F8483B00F063
:1017900079F820AF384600F075F8B36B002D97D17B
:1017A0001D460435B563384600F068F8BDE720A84B
:1017B00000F06CF8B3E7B9F1100F40D9A9F11009A6
:1017C0003368D90708D523F00103304643F00203FC
:1017D00040F8483B00F05EF8B9F1000F32D03368B2
:1017E0005A0720D4B8F10F0F25D96F463846C8F1F3
:1017F000100500F057F8002DB36B7FF77AAF20AFDC
:1018000068E723F01003336006F5E87000F09CF8F9
:10181000FEE623F00803036000F5A87000F068F806
:1018200025E720AFBDE7304623F0040340F8D03B66
:1018300000F038F8D6E720A800F02CF8D5E74FF0F4
:101840000009BDE7B8F10F0F3FF63FAF20AF3846B4
:1018500000F020F8B36B002D7FF43AAF384600F06B
:1018600015F862E700F1340191E838009C46A6467D
:101870004CF8045D90E8FF0FE54600BD90EC210BAD
:10188000704700BF80EC210B704700BF90EC200B2D
:10189000704700BF80EC200B704700BFD0EC200BDE
:1018A000704700BFC0EC200B704700BFF0EC020196
:1018B000F0EC0211F0EC0221F0EC0231F0EC02410C
:1018C000F0EC0251F0EC0261F0EC0271F0EC0281FC
:1018D000F0EC0291F0EC02A1F0EC02B1F0EC02C1EC
:1018E000F0EC02D1F0EC02E1F0EC02F1704700BF45
:1018F000E0EC0201E0EC0211E0EC0221E0EC02314C
:10190000E0EC0241E0EC0251E0EC0261E0EC02713B
:10191000E0EC0281E0EC0291E0EC02A1E0EC02B12B
:10192000E0EC02C1E0EC02D1E0EC02E1E0EC02F11B
:10193000704700BFB0FC0181B0FC0191B0FC01A177
:10194000B0FC01B1704700BFA0FC0181A0FC019177
:10195000A0FC01A1A0FC01B1704700BFEC4600B59E
:101960002DE900502DE9FF1F4FF000032DE90C0079
:1019700001A9FFF7E1FBDDF840E012B0704700BFBE
:10198000EC4600B52DE900502DE9FF1F4FF0000394
:101990002DE90C0001A9FFF70BFCDDF840E012B0C7
:1019A000704700BFEC4600B52DE900502DE9FF1F40
:1019B0004FF000032DE90C0001A9FFF71BFCDDF837
:1019C00040E012B0704700BFEC4600B52DE9005072
:1019D0002DE9FF1F4FF000032DE90C0001ABFFF7CD
:1019E000DFFBDDF840E012B0704700BFEC4600B509
:1019F0002DE900502DE9FF1F4FF000032DE90C00E9
:101A000001AAFFF751FCDDF840E012B0704700BFBB
:101A1000027A03467AB9427AA2B14168013A10B417
:101A20004272086803220C1D1A7202025C60000EEA
:101A300010BC1A6070470068013A1A7202021A60FC
:101A4000000E7047B020704700B585B0002303AA90
:101A5000009219460C22FFF7DDFB039805B05DF8F4
:101A600004FB00BFF0E700BF2DE9F043054685B059
:101A70000E464FF000083046FFF7CAFFB028044674
:101A800000F0BA80070620D500F0F003802B4DD07F
:101A9000902B36D0A02B60D0B02B74D0C02B00F090
:101AA0008B8000F0F803D02B0BD100F0070201323D
:101AB000052342F4002201212846FFF791FD00286A
:101AC000D9D0092005B0BDE8F0838300DBB21F1D2B
:101AD0000DF10C0900231946CDF800900D2228467F
:101AE000FFF798FB039BCDF8009060064CBFDF1B0F
:101AF000FF1800230D22194628460397FFF7B0FB75
:101B0000B9E700F00D030D2BDBD003AF002300F08D
:101B10000F02194600972846FFF77CFB0023009729
:101B20000D2219462846FFF79BFBA4E73046FFF736
:101B30006FFF24022043B0F5004FC2D00401002300
:101B4000A2B219462846FFF74BFD0028B9D114F47C
:101B5000004F18BF4FF001088DE7C24302F00703A2
:101B60004FF47F621A41010702F47F624FF00003D5
:101B700048BF42F4804219462846FFF731FD00284D
:101B80003FF479AF9DE7B1283BD0B22800F09380B5
:101B9000B32841D000F0FC03B42B92D000F0070230
:101BA0000132012342F4002219462846FFF718FDAE
:101BB00000283FF460AF84E7C6284AD0C72854D035
:101BC00000F0F803C02B63D0C82868D0C9287FF480
:101BD00078AF3046FFF71CFF020300F00F0002F45D
:101BE000702201300243012105232846FFF7F8FC4B
:101BF00000283FF440AF64E7B8F1000F18D0002090
:101C000060E73046FFF704FF024600283FF459AF73
:101C100010F0F003C8D054E73046FFF7F9FE020396
:101C200000F00F03013302F470221A430123BBE7D3
:101C300003AC43460E22414600942846FFF7EAFAD9
:101C4000009443460F2241462846FFF709FB4046D1
:101C500038E73046FFF7DCFE020300F00F030133E4
:101C600002F470221A4303239EE73046FFF7D0FEAA
:101C7000024600283FF425AF10F0F0037FF421AFB7
:101C800004212846FFF7ACFC00283FF4F4AE18E727
:101C900000F00F020132032342F4202284E7304691
:101CA000FFF7B6FE00F0F00200F00F031032013330
:101CB00043EA023297E700230DF10C090D22194681
:101CC000CDF800902846FFF7A5FA3046FFF7A0FEB2
:101CD00002064FF002040CD5039B00F07F00A040E9
:101CE000184403903046FFF793FE030604F10704FF
:101CF000F2D4039BCDF8009000F07F02A24003F5E0
:101D000001731A440023039219460D222846FFF757
:101D1000A7FAB0E610B5C26C536884B04FF0030C5C
:101D200008321C0208461B0E01A9019402928DF88C
:101D30000CC08DF80D30FFF797FE04B010BD00BF4A
:101D400008B5FFF78FFE806C08BD00BF08B5FFF730
:101D500089FEC06CC379023300EB830008BD00BF6D
:101D6000704700BF844641EA000313F003036DD1BE
:101D7000403A41D351F8043B40F8043B51F8043B4E
:101D800040F8043B51F8043B40F8043B51F8043B55
:101D900040F8043B51F8043B40F8043B51F8043B45
:101DA00040F8043B51F8043B40F8043B51F8043B35
:101DB00040F8043B51F8043B40F8043B51F8043B25
:101DC00040F8043B51F8043B40F8043B51F8043B15
:101DD00040F8043B51F8043B40F8043B51F8043B05
:101DE00040F8043B51F8043B40F8043B51F8043BF5
:101DF00040F8043B403ABDD2303211D351F8043B95
:101E000040F8043B51F8043B40F8043B51F8043BD4
:101E100040F8043B51F8043B40F8043B103AEDD243
:101E20000C3205D351F8043B40F8043B043AF9D294
:101E3000043208D0D2071CBF11F8013B00F8013B67
:101E400001D30B8803806046704700BF082A13D374
:101E50008B078DD010F003038AD0C3F10403D21A8C
:101E6000DB071CBF11F8013B00F8013B80D331F8C0
:101E7000023B20F8023B7BE7043AD9D3013A11F840
:101E8000013B00F8013BF9D20B7803704B784370AB
:101E90008B788370604670470000000000000000EF
:101EA0000000000000000000000000000000000032
:101EB0000000000000000000000000000000000022
:101EC00090F800F06DE9024520F007016FF0000C7A
:101ED00010F0070491F820F040F049804FF0000422
:101EE0006FF00700D1E9002391F840F000F10800FD
:101EF00082FA4CF2A4FA8CF283FA4CF3A2FA8CF335
:101F00004BBBD1E9022382FA4CF200F10800A4FA9B
:101F10008CF283FA4CF3A2FA8CF3E3B9D1E90423EF
:101F200082FA4CF200F10800A4FA8CF283FA4CF326
:101F3000A2FA8CF37BB9D1E9062301F1200182FAE0
:101F40004CF200F10800A4FA8CF283FA4CF3A2FAE6
:101F50008CF3002BC6D0002A04BF04301A4612BAF4
:101F6000B2FA82F2FDE8024500EBD2007047D1E9F7
:101F7000002304F00305C4F100004FEAC50514F086
:101F8000040F91F840F00CFA05F562EA05021CBF57
:101F900063EA050362464FF00004A9E70000000071
:101FA00001F0FF01102A2BDB10F0070F08D010F80A
:101FB000013B013A8B422DD010F0070F42B3F6D10E
:101FC000F0B441EA012141EA014122F007047FF027
:101FD00000070023F0E80256083C85EA010586EA7E
:101FE000010685FA47F5A3FA87F586FA47F6A5FABA
:101FF00087F68EB9EED1F0BC01F0FF0102F00702C6
:1020000032B110F8013B013A83EA010313B1F8D170
:102010000020704701387047002D06BF3546033851
:10202000073815F0010F07D1013015F4807F02BF8A
:10203000013015F4C03F0130F0BC0138704700BFDB
:102040004FEA410C7FEA6C5C02D150EA013C0AD1B4
:102050004FEA430C7FEA6C5C02D152EA033C02D1A6
:102060004FF0000070474FF0010070474FEA410207
:1020700012F5001215D211D56FF47873B3EB6252DA
:1020800012D94FEAC12343F0004343EA505311F001
:10209000004F23FA02F018BF404270474FF0000093
:1020A000704750EA013005D111F0004008BF6FF0D1
:1020B000004070474FF00000704700BF38B5002265
:1020C000002304460D46FEF7C9FC28B920462946E0
:1020D000BDE8384000F00AB8204605F1004100F0A4
:1020E00005F8404261EB410138BD00BFD0B50C4B53
:1020F000002206460F46FEF73FFAFEF7D7FC0446DD
:10210000FEF7C0F9074B0022FEF736FA02460B46EF
:1021100030463946FEF778F8FEF7C8FC2146D0BDB8
:102120000000F03D0000F04108B50D480D4B036084
:102130000323436000238360C3604FF410220261D5
:102140004FF400124261037643768376C3760377B9
:10215000437701F00FF900B908BD00F0C1FAFBE7C1
:10216000E80A00200064004008B50D480D4B0360EC
:102170000323436000238360C3604FF41022026195
:102180004FF400124261037643768376C376037779
:10219000437701F0EFF800B908BD00F0A1FAFBE7C2
:1021A000100B00200068004010B58AB00023059392
:1021B000069307930893099303683D4A934204D01A
:1021C0003C4A934234D00AB010BD3B4A13680133F5
:1021D0001360012B1FD000240194384B1A6B42F07E
:1021E00008021A631B6B03F008030193019B03238E
:1021F00005930222069208930923099305A9304802
:1022000001F0CEFE22460521142001F01DFC142011
:1022100001F052FCD7E700230093284B1A6C42F0E0
:1022200000721A641B6C03F000730093009BD2E7EA
:1022300000230293214B1A6C42F080621A641B6CDB
:1022400003F080630293029B1B4A136801331360FF
:10225000012B20D000240494184B1A6B42F0020288
:102260001A631B6B03F002030493049B6023059322
:1022700002230693032308930923099305A9114810
:1022800001F08EFE22460521402001F0DDFB4020BA
:1022900001F012FC97E700230393084B1A6C42F0FD
:1022A00000721A641B6C03F000730393039BD1E765
:1022B0000064004000680040E40A0020003802404A
:1022C000000C02400004024010B582B000240094CB
:1022D000164B1A6B42F480021A631A6B02F48002E6
:1022E0000092009A01941A6B42F400121A631B6B5D
:1022F00003F400130193019B224605210C2001F0F9
:10230000A3FB0C2001F0D8FB224605213A2001F066
:102310009BFB3A2001F0D0FB22460521462001F02C
:1023200093FB462001F0C8FB02B010BD003802400C
:10233000704708B508F01EF9142006F04AFAFBE7CA
:1023400008B5012006F045FAFBE708B5012006F0C4
:1023500040FAFBE7034B0360034B0B6080231360E1
:10236000704700BF500D00204C0B0020034B036052
:10237000034B0B604FF4807313607047D01500203F
:10238000D011002030B59FB0294B1C9300251D951E
:102390002A4601211CA806F023FA264B1860264C79
:1023A0000DF1540CA646BEE80F00ACE80F009EE805
:1023B00007008CE80700294615A806F0D5F91F4B41
:1023C00018600DF1380C04F11C0EBEE80F00ACE8EB
:1023D0000F009EE807008CE8070029460EA806F0CB
:1023E000C3F9174B18600DF11C0C04F1380EBEE850
:1023F0000F00ACE80F009EE807008CE807002946B4
:1024000007A806F0B1F90F4B1860EE4604F1540C22
:10241000BCE80F00AEE80F009CE807008EE807005C
:102420002946684606F0A0F9074B18601FB030BD7A
:1024300031230008480B0020E8390108440B002034
:102440003C0B0020380B0020400B00202DE9F04110
:102450008EB0002409940A940B940C940D9400946B
:102460004E4B1A6B42F002021A631A6B02F0020220
:102470000092009A01941A6B42F001021A631A6BDF
:1024800002F001020192019A02941A6B42F00802D2
:102490001A631A6B02F008020292029A03941A6BF2
:1024A00042F004021A631A6B02F004020392039AC8
:1024B00004941A6B42F480721A631A6B02F48072ED
:1024C0000492049A05941A6B42F080021A631A6B04
:1024D00002F080020592059A06941A6B42F04002BF
:1024E0001A631A6B02F040020692069A07941A6B5E
:1024F00042F020021A631A6B02F020020792079A38
:1025000008941A6B42F010021A631B6B03F010035D
:102510000893089B224E22464021304601F032FEAD
:10252000DFF8888001221021404601F02BFE1D4F6C
:1025300001221146384601F025FE4023099301256A
:102540000A950B940C9409A9304601F029FD082343
:1025500009934FF404130A930B9509A9304601F02F
:102560001FFD102609960A950B940C9409A9404664
:1025700001F016FD09964FF488130A930B9409A9EC
:10258000094801F00DFD09950A950B940C9409A9D1
:10259000384601F005FD0EB0BDE8F081003802407C
:1025A00000180240000402400008024000000240FF
:1025B00008B50B480B4B03600B4B43600023836053
:1025C000C3604FF48042026143618361C36103626F
:1025D00001F0DEFD00B908BD00F082F8FBE700BFA6
:1025E000501A0020005C0040801A06002DE9F041DE
:1025F00088B000230393049305930693079302681E
:10260000204B9A4202D008B0BDE8F0810025009529
:102610001D4C236B43F004032363236B03F004037B
:102620000093009B0195236B43F080032363236B8E
:1026300003F080030193019B4FF4007303934FF069
:102640001208CDF81080032706970426079603A9E1
:102650000E4801F0A5FC80230393CDF8108005956A
:102660000697079603A90A4801F09AFC0295236C85
:1026700043F400032364236C03F400030293029BDE
:10268000C1E700BF005C0040003802400008024083
:10269000001C024008B50748074B03600023436055
:1026A00040F6FF73836001F051FE00B908BD00F0F1
:1026B00017F8FBE7A41A00200030004008B5FFF728
:1026C00061FE06F04CF808BD08B50268034B9A425B
:1026D00000D008BD00F028FEFBE700BF001000405E
:1026E00072B6FEE700B595B03022002108A809F0C7
:1026F00069FB0023039304930593069307930193C7
:10270000214A116C41F080511164126C02F0805228
:102710000192019A02931D4B1A6842F480421A609A
:102720001B6803F480430293029B092308934FF430
:102730008033099301230D9302230E934FF48002FB
:102740000F9206221092A82211921293072313933C
:1027500008A802F097FC98B90F230393022304936F
:10276000002305934FF4A05306934FF4805307932F
:10277000052103A802F0D4FE20B915B05DF804FBD2
:10278000FFF7AEFFFFF7ACFF0038024000700040DB
:1027900008B500F0AFFDFFF7A5FFFFF757FEFFF705
:1027A00093FD00F0DFFA00F0A9FB00F051FC00F00F
:1027B00069FCFFF7B9FCFFF7D7FCFFF7F9FE00F063
:1027C0002FF800F00BFC00F047FB04F031FF02484B
:1027D00003F0CCF808BD00BFE41B002008B5084892
:1027E00009F02AF8074809F027F808F0CBF906485D
:1027F00003F0BCF808F012FF08F052FC08BD00BF5F
:10280000E80A0020100B00202C1C002008B5FFF760
:10281000BFFFFFF7E3FFFFF73DFFFFF74FFFFEE7C7
:1028200008B50F480F4B03604FF4827343600023D9
:102830008360C36002220261012242614FF4007290
:1028400082613822C2610362436283620A23C362E7
:1028500002F05AFF00B908BDFFF742FFFBE700BFD7
:10286000B01A002000300140F0B589B00023039376
:10287000049305930693079302681E4B9A4201D076
:1028800009B0F0BD0024009403F584335A6C42F47F
:1028900080525A645A6C02F480520092009A019459
:1028A0001A6B42F002021A631A6B02F002020192E2
:1028B000019A02941A6B42F001021A631B6B03F037
:1028C00001030293029B1823039302270497032614
:1028D00006960525079503A9074801F061FB8023AB
:1028E0000393049705940696079503A9034801F0FE
:1028F00057FBC5E7003001400004024000000240E1
:1029000000B583B0002200920D4B596C41F4804118
:102910005964596C01F48041009100990192196C3D
:1029200041F0805119641B6C03F080530193019BAB
:102930000F216FF0010001F087F803B05DF804FB90
:102940000038024030B589B0044600230193214B82
:102950001A6C42F010021A641B6C03F0100301930E
:10296000019B02A903A802F0B1FE069BCBB902F0BD
:102970008DFE03461848A0FB03239B0C013B174820
:10298000174A026040F2E732C260436000230361ED
:102990008360836103F054F9054630B1284609B0DD
:1029A00030BD02F073FE4300E4E70C4802F0DEFFA6
:1029B00005460028F2D1362001F07EF80F2C01D90F
:1029C0000125EBE700222146362001F03DF8054BBA
:1029D0001C60E3E70038024083DE1B43081B002035
:1029E0000010004008000020FEE7FEE7FEE7FEE7DB
:1029F000FEE7704708B5024801F0E4F908BD00BFE2
:102A00007C1D002008B5024800F0E7FE08BD00BFAD
:102A1000E80A002010B5044C204603F0ADFD204626
:102A200008F0CEF910BD00BFDC1D002008B503483A
:102A300003F0A2FD08F04CFE08BD00BF201E0020E0
:102A400008B5024802F0DAFF08BD00BF081B0020ED
:102A500008B5024801F0B6F908BD00BFBC1C002053
:102A600008B5024800F0B9FE08BD00BF100B0020F9
:102A700008B5024801F0F8FF08BD00BFF87100205A
:102A800008B5024801F09EF908BD00BF1C1D0020DA
:102A90000120704708B509F0EFF8162303604FF0E6
:102AA000FF3008BD08B54FF0FF31FFF7F3FFFEE739
:102AB00070B50C461646002506E0AFF300802146AF
:102AC00001F8010B01350C46B542F6DB304670BD0E
:102AD00070B50C461646002504E014F8010BAFF360
:102AE00000800135B542F8DB304670BD4FF0FF3055
:102AF00070474FF400534B6000207047012070472F
:102B00000020704710B503460C4A0D490D48006877
:102B100040B10C4800680344521A934206D8094A4F
:102B2000136010BD0748084C0460F2E709F0A4F8F0
:102B30000C2303604FF0FF30F3E700BF00000220DA
:102B400000040000501B002060890020034AD2F8D6
:102B5000883043F47003C2F88830704700ED00E01D
:102B600084B00368184A934207D0184A934211D0A0
:102B7000174A93421BD004B0704700230193154BB2
:102B80005A6C42F001025A645B6C03F0010301933A
:102B9000019BF0E7002302930E4B1A6C42F00802EF
:102BA0001A641B6C03F008030293029BE3E7002303
:102BB0000393084B5A6C42F002025A645B6C03F0B8
:102BC00002030393039BD6E700000140000C004082
:102BD000000401400038024082B00368104A93426A
:102BE00004D0104A93420ED002B0704700230093E5
:102BF0000D4B1A6C42F004021A641B6C03F00403C0
:102C00000093009BF0E700230193074B5A6C42F4BA
:102C100000325A645B6C03F400330193019BE3E7D9
:102C200000080040004401400038024070B58AB0FE
:102C300000230593069307930893099303683F4A7B
:102C400093420AD03E4A93421FD03E4A934233D029
:102C50003D4A93425BD00AB070BD002300933B4BCA
:102C60001A6B42F010021A631B6B03F010030093FF
:102C7000009B4FF4D4430593022306930123099349
:102C800005A9334801F08CF9E5E7002301932F4BA8
:102C90001A6B42F080021A631B6B03F080030193EE
:102CA000019B4FF4E053059302230693099305A972
:102CB000284801F075F9CEE700240294234B1A6BE3
:102CC00042F480721A631A6B02F480720292029AC2
:102CD00003941A6B42F004021A631B6B03F00403A3
:102CE0000393039BC02305930226069603250995AB
:102CF00005A9194801F054F9402305930696079455
:102D00000894099505A9154801F04AF9A3E700239D
:102D100004930E4B1A6B42F020021A631B6B03F0F4
:102D200020030493049B402305930223069303236B
:102D3000099305A90A4801F033F98CE70000014026
:102D4000000C0040000401400044014000380240F3
:102D500000100240001C0240002002400008024017
:102D60000014024010B592B00024109411940994FC
:102D70000A940B940C940D940E940F9420222146E7
:102D800001A809F01FF83248324B0360A7234360C3
:102D9000846044F61F63C36004614461846102F08F
:102DA0007BFF00283ED100231093119310A92848DF
:102DB00003F0D6F8002838D1602309934FF4FA6362
:102DC0000A9300220B920C920D920E920F9209A977
:102DD0001F4802F0C5FF58BB042209A91C4802F095
:102DE000BFFF40BB082209A9194802F0B9FF28BB60
:102DF0000C2209A9164802F0B3FF10BB002301936F
:102E000002930393049305934FF4005206920893A0
:102E100001A90F4803F0EAF8B0B90D48FFF706FF23
:102E200012B010BDFFF75CFCBDE7FFF759FCC3E72C
:102E3000FFF756FCD0E7FFF753FCD3E7FFF750FC52
:102E4000D6E7FFF74DFCD9E7FFF74AFCE5E700BFFF
:102E5000541B00200000014000B58BB000230893F4
:102E600009930193029303930493059306930793A5
:102E70002048214A0260436083604FF6FF72C260BF
:102E80000361836102F008FF28BB002308930993C4
:102E900008A9184803F064F800BB602301930022DE
:102EA00002920392059201A9124802F059FFC0B99B
:102EB00004220DEB02010F4802F052FFA0B90822D4
:102EC00001A90C4802F04CFF88B90A48FFF7AEFE92
:102ED0000BB05DF804FBFFF703FCD6E7FFF700FC3F
:102EE000DBE7FFF7FDFBE3E7FFF7FAFBE7E7FFF7B9
:102EF000F7FBEAE72C1C0020000C004010B592B054
:102F000000241094119409940A940B940C940D9439
:102F10000E940F942022214601A808F053FF2D485B
:102F20002D4B0360A7234360846044F61F63C36096
:102F300004614461846102F0AFFE002838D10023AF
:102F40001093119310A9234803F00AF8002832D1F6
:102F5000602309934FF4FA630A9300220B920C92B8
:102F60000D920E920F9209A91A4802F0F9FE28BBA1
:102F7000042209A9174802F0F3FE10BB082209A990
:102F8000144802F0EDFEF8B9002301930293039375
:102F9000049305934FF400520692089301A90D483B
:102FA00003F024F898B90B48FFF740FE12B010BDAB
:102FB000FFF796FBC3E7FFF793FBC9E7FFF790FB2B
:102FC000D6E7FFF78DFBD9E7FFF78AFBDCE7FFF7D2
:102FD00087FBE8E7741C00200004014000B589B0BD
:102FE000002301930293039304930593069307939D
:102FF0001548164A0260A7224260836044F61F62A9
:10300000C2600361836102F01BFEA0B90E4802F0AA
:1030100043FE98B960230193002202920392059225
:1030200001A9094802F09CFE58B90748FFF7FEFDC8
:1030300009B05DF804FBFFF753FBE7E7FFF750FB30
:10304000E8E7FFF74DFBF0E79C1B00200044014040
:1030500008B50A480A4B03604FF4E133436000238C
:103060008360C36003610C2242618361C36103F02A
:10307000DFF800B908BDFFF733FBFBE7DC1D0020DC
:103080000010014008B50A480A4B03600A4B436030
:1030900000238360C36003610C2242618361C361CA
:1030A00003F0C6F800B908BDFFF71AFBFBE700BF45
:1030B000201E002000480040A08601002DE9F041BC
:1030C0008AB0044600230593069307930893099357
:1030D0000368674A934205D0664A93427FD00AB09C
:1030E000BDE8F08100250095634B5A6C42F0100258
:1030F0005A645A6C02F010020092009A01951A6B01
:1031000042F002021A631A6B02F002020192019A63
:1031100002951A6B42F001021A631B6B03F0010364
:103120000293029B802305934FF00208CDF818808C
:10313000032708970726099605A9504800F030FF95
:103140004FF400730593CDF81880079508970996FA
:1031500005A94B4800F024FF4A484B4B03604FF051
:10316000006343608560C5604FF48063036145611F
:1031700085614FF48073C3614FF44033036245624D
:1031800000F028FD28BB3F4BA3639C633F48404BA6
:1031900003604FF000634360402383600023C360FB
:1031A0004FF48062026143618361C3614FF4403236
:1031B0000262436200F00EFD70B9344B63639C639E
:1031C00000220521252000F03FFC252000F074FCA2
:1031D00085E7FFF785FAD6E7FFF782FAEDE70025E6
:1031E0000395254B1A6C42F480221A641A6C02F47F
:1031F00080220392039A04951A6B42F004021A6328
:103200001B6B03F004030493049B4FF4406305938A
:1032100002230693032308930723099305A91D4856
:1032200000F0BEFE1C481D4B03604FF0006343607E
:103230008560C5604FF480630361456185614FF42B
:103240008073C3614FF440330362456200F0C2FCF7
:1032500058B9114BA3639C6300220521272000F07D
:10326000F3FB272000F028FC39E7FFF739FAF0E7F5
:1032700000100140004800400038024000040240B5
:1032800000000240BC1C0020406402401C1D0020C5
:10329000B8640240000802407C1D00202860024003
:1032A000DFF834D00D480E490E4A002302E0D4580E
:1032B000C4500433C4188C42F9D30B4A0B4C00237E
:1032C00001E013600432A242FBD3FFF73FFC08F099
:1032D000D9FCFFF79BFA7047000002200000002095
:1032E000C40A002094450108C80A00206089002013
:1032F000FEE7000008B50B4B1A6842F400721A6032
:103300001A6842F480621A601A6842F480721A6085
:10331000032000F087FB0F20FFF714FBFFF7F0FA04
:10332000002008BD003C0240034A1168034B1B7893
:103330000B441360704700BF641E0020040000208F
:10334000014B1868704700BF641E002038B5044662
:10335000FFF7F6FF0546B4F1FF3F02D0044B1B78A0
:103360001C44FFF7EDFF401BA042FAD338BD00BF5D
:1033700004000020002800F0A18038B5044690F831
:103380002030D3B12268136843F001031360FFF7C4
:10339000D7FF054623685A6812F0010F10D1FFF7D6
:1033A000CFFF401B0A28F5D9636A43F400336362F8
:1033B000052384F82030012038BDFEF7F5FEE1E753
:1033C0001A6822F002021A60FFF7BAFF0546236866
:1033D0005A6812F0020F0DD0FFF7B2FF401B0A2807
:1033E000F5D9636A43F400336362052384F820301F
:1033F0000120E1E7227E012A3DD01A6822F08002F6
:103400001A60637E012B3BD02268136823F04003CF
:103410001360A37E012B39D02268136823F02003A8
:103420001360E37E012B37D02268136843F010034A
:103430001360237F012B35D02268136823F0080323
:103440001360637F012B33D02268136823F00403D9
:103450001360A368E268134322691343626913434C
:103460006268013A21681343CB6100206062012346
:1034700084F82030A0E71A6842F080021A60C0E7A2
:103480002268136843F040031360C2E722681368A0
:1034900043F020031360C4E72268136823F010038D
:1034A0001360C6E72268136843F008031360C8E797
:1034B0002268136843F004031360CAE701207047D1
:1034C00090F82030013BDBB2012B05D9436A43F46D
:1034D000802343620120704730B5464BD3F8002269
:1034E00042F00102C3F80022D3F8002222F47C52F9
:1034F000C3F80022D3F80022486A42EA0022C3F847
:1035000000224A6902F01F02012000FA02F2D3F8F9
:103510001C026FEA020C20EA0200C3F81C02CB690D
:10352000C3B9344BD3F80C020CEA0000C3F80C0208
:103530008C884869CD6844EA0544483043F83040F7
:103540008C68088840EA04404C6904F1480E03EB9B
:10355000CE035860CB69012B1ED08B69002B33D171
:103560002448D0F804320CEA0303C0F804320B6993
:103570008BBB2048D0F814320CEA0303C0F8143295
:103580000B6A012B2ED01B4AD2F8003223F0010324
:10359000C2F80032002030BD164BD3F80C021043A5
:1035A000C3F80C028C8848690D6844EA0544483029
:1035B00043F8304088894C698D6840EA05404834BA
:1035C00003EBC4035860C8E70A48D0F80432134339
:1035D000C0F80432CBE70748D0F814321343C0F8E0
:1035E0001432CDE70349D1F81C321A43C1F81C222A
:1035F000C9E700BF0064004070B5044690F8205051
:10360000EDB2012D06D0436A43F400234362012545
:10361000284670BD022380F820300268136823F02A
:1036200001031360FFF78CFE064623685B6813F006
:10363000010F0CD0FFF784FE831B0A2BF5D9636AB8
:1036400043F400336362052384F82030E0E700256B
:103650006562DDE790F820C00CF1FF3C5FFA8CFC5E
:10366000BCF1010F00F2958030B451B90468E468F0
:1036700014F0030F10D1436A43F400134362012096
:1036800077E00468246914F0030F05D1436A43F41A
:103690000013436201206CE001F11B042401056862
:1036A0002C5904F004049460002C64D101F11B0433
:1036B000240105682C59640D1460046801F11B0C89
:1036C0004FEA0C1C54F80C4004F00204D460046867
:1036D0006444646804F00F0414610468644464681A
:1036E000C4F307249461046864446468240C54613E
:1036F000026802EB0112D2F8B8211A70026802EBDC
:103700000112D2F8B821C2F307225A70026802EB04
:103710000112D2F8B821C2F307429A70026802EB94
:103720000112D2F8B821120EDA70026802EB01120F
:10373000D2F8BC211A71026802EB0112D2F8BC2146
:10374000C2F307225A71026802EB0112D2F8BC21BF
:10375000C2F307429A71026802EB0112D2F8BC214F
:10376000120EDA7179B90268D36843F02003D3608E
:10377000002030BC704701F11B04240105682C595E
:10378000E408546099E70268136943F02003136169
:10379000EEE7436A43F4802343620120704790F8C8
:1037A0002030013BDBB2012B05D9436A43F480236F
:1037B0004362012070470268536919435161002038
:1037C0007047704770477047704770477047704741
:1037D000704770477047704770472DE9F84F0546AE
:1037E00003685C69D3F804809F68D3F80CB0D3F801
:1037F00010A0D3F8189014F001063BD017F0010682
:1038000016D001229A6017F0020F08D117F0040FAA
:103810000CD117F0080606D04FF4805608E0FFF7E9
:10382000D0FF002604E0FFF7CFFF01E04FF4006671
:1038300017F4807F0DD02B684FF480729A6017F4D4
:10384000007F40F0868017F4806F00F0868046F499
:10385000005617F4803F0DD02B684FF480329A60E9
:1038600017F4003F40F0838017F4802F00F083802E
:1038700046F4004614F0080F07D01BF0100F04D0D8
:1038800046F400762B681022DA6014F0040F02D0A0
:103890001BF0080F79D114F0020F04D02B68DB68FD
:1038A00013F0030F78D114F0400F07D01AF0100F67
:1038B00004D046F480662B6810221A6114F0200FA1
:1038C00002D01AF0080F6BD114F0100F04D02B683F
:1038D0001B6913F0030F6AD114F4003F02D018F0F3
:1038E000100F68D114F4803F02D018F0080F69D18E
:1038F00014F4004F7AD018F0040F74D014F4807FC1
:1039000004D019F0010F01D046F0010614F4007F35
:1039100004D019F0020F01D046F0020614F4806FB3
:1039200004D019F0040F01D046F0040614F4006F1F
:1039300059D019F0700956D0B9F1400F65D058D858
:10394000B9F1200F5ED0B9F1300F42D146F0200618
:1039500044E02846FFF736FF7BE717F4006F02D0FC
:1039600046F4804675E72846FFF72FFF71E72846A3
:10397000FFF729FF7EE717F4002F02D046F48036C8
:1039800078E72846FFF722FF74E72B680822DA6001
:103990002846FFF71CFF7EE7284607F0AFFF82E7C7
:1039A0002B6808221A612846FFF713FF8CE7284688
:1039B000FFF70EFF90E72B6810225A602846FFF7AA
:1039C00009FF8FE72B6808225A602846FFF703FF9C
:1039D0008EE7B9F1100F01D146F008062A68936905
:1039E00023F0700393612B6804225A609EB9BDE8EE
:1039F000F88FB9F1500F0BD0B9F1600FEED146F44A
:103A00008076EBE746F01006E8E746F04006E5E78B
:103A100046F08006E2E76B6A1E436E622846FFF7B7
:103A2000DBFEE4E7074AD36823F4E0631B041B0CC6
:103A3000000200F4E060034343F0BF6343F400334B
:103A4000D360704700ED00E000B5194BDB68C3F3AD
:103A50000223C3F1070CBCF1040F28BF4FF0040C84
:103A600003F1040EBEF1060F18D9033B4FF0FF3EE1
:103A70000EFA0CFC21EA0C0199400EFA03F322EA3B
:103A80000303194300280BDB0901C9B200F16040B0
:103A900000F5614080F800135DF804FB0023E5E7C2
:103AA00000F00F000901C9B2024B1954F4E700BF3E
:103AB00000ED00E014ED00E0002807DB00F01F023D
:103AC000400901239340024A42F82030704700BF6A
:103AD00000E100E030B405682C6824F480242C60F8
:103AE000046863608368402B05D0036899600368AD
:103AF000DA6030BC704703689A600368D960F8E701
:103B000010B40368D9B210390C4AA2FB0142120961
:103B10000B4CA25CC2655F2909D923F47F7323F0A3
:103B2000030304338365806D5DF8044B704723F411
:103B30007F7323F003038365F5E700BFABAAAAAA4E
:103B4000B43A0108836A826992B9012B0AD0022B28
:103B500002D00BB100207047C36A13F0807F28D1D8
:103B600000207047C36AB3F1C07F24D000207047A3
:103B7000B2F5005F09D0022B25D9032B25D1C36AEA
:103B800013F0807F23D100207047032B03D8DFE898
:103B900003F01404140A00207047C36A13F0807FF6
:103BA0000DD100207047C36AB3F1C07F09D0002057
:103BB00070470120704701207047012070470120A5
:103BC0007047012070470120704700207047012096
:103BD0007047000070B50446FFF7B2FB002C5BD0C5
:103BE0000546022384F83530002384F834302268F7
:103BF000136823F00103136023681A6812F0010FA1
:103C00000AD0FFF79DFB431B052BF5D920236365E5
:103C1000032084F8350070BD1A68204810406168A0
:103C2000A2680A43E1680A4321690A4361690A43B9
:103C3000A1690A43E1690A43216A0A430243616AAE
:103C400004291ED01A602668756925F00705636A85
:103C50001D43042B07D1A36A1D43E36A1BB1204611
:103C6000FFF770FF90B975612046FFF749FFE26DDD
:103C70003F239340836000206065012384F8353042
:103C8000C9E7E16A206B01430A43DBE74023636530
:103C9000012084F83500BEE70120BCE73F8010F02A
:103CA00038B50446856D90F8340001282BD00120EA
:103CB00084F8340094F83500C0B2012804D0002301
:103CC00084F83430022038BD022084F8350000200A
:103CD00060652046FFF7FEFEE26D3F239340AB6038
:103CE0002268136843F016031360236C23B1226823
:103CF000136843F0080313602268136843F001035C
:103D000013600020DFE70220DDE770B50446866D12
:103D1000FFF716FB94F83530DBB2022B06D0802378
:103D20006365002384F83430012070BD05462268A5
:103D3000136823F0160313602268536923F080038D
:103D40005361236CE3B12268136823F00803136006
:103D50002268136823F00103136023681B6813F0C3
:103D6000010F11D0FFF7ECFA431B052BF5D92023E7
:103D70006365032084F83500002384F83430D4E7E9
:103D8000A36C002BDFD1E3E7E26D3F239340B360E8
:103D9000012384F83530002084F83400C5E790F81A
:103DA0003530DBB2022B03D08023436501207047FE
:103DB000052380F835300268136823F0010313608F
:103DC00000207047F0B583B0044600230193724B86
:103DD0001D68724BA3FB0535AD0A876D3E68C26D49
:103DE00008239340334210D003681A6812F0040F7E
:103DF0000BD01A6822F004021A60C26D08239340A7
:103E0000BB60436D43F001034365E26D01239340C2
:103E1000334209D02268526912F0800F04D0BB608F
:103E2000636D43F002036365E26D04239340334204
:103E300009D02268126812F0020F04D0BB60636DD3
:103E400043F004036365E26D10239340334224D0B2
:103E50002268126812F0080F1FD0BB6023681A682E
:103E600012F4802F0DD01B6813F4002F04D1236CA3
:103E70009BB12046984710E0A36C73B12046984749
:103E80000BE01A6812F4807F03D11A6822F008024E
:103E90001A60236C0BB120469847E26D20239340B3
:103EA000334255D02268126812F0100F50D0BB6018
:103EB00094F83530DBB2052B0ED023681A6812F463
:103EC000802F33D01B6813F4002F2AD1636C002B92
:103ED0003ED0204698473BE02268136823F0160343
:103EE00013602268536923F080035361236CA3B1EC
:103EF0002268136823F008031360E26D3F239340A8
:103F0000BB60012384F83530002384F83430236DFE
:103F1000002B3FD0204698473CE0A36C002BE7D114
:103F2000EBE7E36BA3B12046984711E01A6812F45F
:103F3000807F09D11A6822F010021A60012384F8E8
:103F40003530002384F83430E36B0BB120469847BA
:103F5000636DFBB1636D13F0010F17D0052384F877
:103F600035302268136823F001031360019B01338D
:103F70000193AB4204D823681B6813F0010FF5D1FD
:103F8000012384F83530002384F83430E36C0BB11E
:103F90002046984703B0F0BD00000020B5814E1BBD
:103FA00000230F2B00F2E48070B582B060E08568DA
:103FB0005E000324B44025EA0405CC68B4402C43D9
:103FC0008460456825EA02054C68C4F300129A40F3
:103FD0002A4342605AE0DC08083450F8246003F0B9
:103FE000070295000F22AA4026EA020E0A69AA409B
:103FF00042EA0E0240F824205CE0072200E00022A2
:1040000002FA0EF22A4302345A4D45F824205A4A45
:1040100094686FEA0C0224EA0C054E6816F4801FBF
:1040200001D04CEA0405544CA560E46802EA04059A
:104030004E6816F4001F01D04CEA04054E4CE560B2
:10404000646802EA04054E6816F4003F01D04CEAA9
:104050000405494C6560246822404D6815F4803F92
:1040600001D04CEA0402444C226001330F2B7DD86E
:1040700001229A400C6804EA020C32EA0404F4D1EA
:104080004C6804F00304013C012C90D94A6802F00A
:104090000302032A09D0C4685D000322AA4024EA6F
:1040A00002048A68AA402243C2604A6802F00302FE
:1040B000022A90D004684FEA430E032202FA0EF25D
:1040C00024EA02044A6802F0030202FA0EF22243D2
:1040D00002604A6812F4403FC7D000220192274A8A
:1040E000546C44F480445464526C02F48042019253
:1040F000019A9C08A51C1F4A52F8255003F00302A0
:104100004FEA820E0F2202FA0EF225EA02051C4A3D
:1041100090423FF474AF02F5806290421AD002F5EB
:104120008062904218D002F58062904216D002F56B
:104130008062904214D002F58062904212D002F563
:104140008062904210D002F5806290423FF455AFF9
:10415000082255E7012253E7022251E703224FE7E5
:1041600004224DE705224BE7062249E702B070BD65
:10417000704700BF00380140003C01400038024059
:10418000000002400AB181617047090481617047F3
:10419000002800F0CC8070B5044690F83D30002B2C
:1041A00077D0242384F83D302268136823F001037C
:1041B00013602268136843F4004313602268136895
:1041C00023F40043136001F061FA62685A4B9A428B
:1041D00064D85A4B98428CBF00230123002B40F037
:1041E000A8805749A1FB00318B0C25686A6822F032
:1041F0003F0242EA91426A6021680A6A22F03F0265
:1042000066684D4DAE424FD8013313430B622168AF
:10421000CA6922F44F4222F0FF026668464B9E4272
:104220004CD8431E7600B3FBF6F3013340F6FC7026
:10423000034278D0C3F30B031343CB6121680B68AF
:1042400023F0C003E269206A024313430B60216834
:104250008B6823F4034323F0FF032269E0680243E1
:1042600013438B602168CB6823F0FF036269A06968
:1042700002431343CB602268136843F001031360C9
:1042800000202064202384F83D30206384F83E0021
:1042900070BD80F83C30FEF7A9F982E7294B9842BF
:1042A0008CBF0023012399E74FF4967505FB03F3B8
:1042B000254DA5FB03539B090133A6E7A368BBB9B2
:1042C000451E06EB460CB5FBFCF50135C5F30B05A9
:1042D000B5FA85F56D0945BBC3B9013806EB460350
:1042E000B0FBF3F30133C3F30B0343F40043A3E741
:1042F000451E06EB860C0CEB8C0CB5FBFCF5013572
:10430000C5F30B05B5FA85F56D09E4E7013806EB51
:10431000860303EB8303B0FBF3F30133C3F30B0317
:1043200043F4404388E7042386E7012384E7012020
:1043300070470120ACE700BFA08601007F841E000B
:1043400083DE1B43FF083D00D34D621040B338B5F8
:10435000044603684CF6CC421A60036845F2555295
:104360001A60036842685A60036882689A60FEF7C0
:10437000E7FF05462368DA6812F0030F0BD0FEF75B
:10438000DFFF401B3128F5D92368DB6813F0030FEA
:10439000F0D0032003E04AF6AA221A60002038BDBC
:1043A0000120704703684AF6AA221A60002070476D
:1043B0002DE9F04383B0D0F8008001EBC10300EB9E
:1043C0008303DA6D5B6D9A4254D807460C469B1AFC
:1043D00001EBC10200EB8202926C9A4200D31A46B2
:1043E00002F103094FEA990915E006F103094FEAC2
:1043F000990904EBC40507EB8505E96C3B7C009348
:10440000B3B2E2B2404602F08AFEEB6C3344EB6496
:10441000EB6D3344EB6508EB441303F510639B69C4
:104420009BB24B4512D304EBC40207EB8202D16D61
:10443000536D99420AD24BB15B1A04EBC40207EBED
:104440008202966C9E42D0D31E46CEE704EBC40097
:1044500007EB80077A6DFB6D9A420FD804F00F04CA
:104460000123A340D8F8344824EA0304C8F83448A8
:10447000002000E0012003B0BDE8F0830020FAE74F
:1044800070B58AB0002800F090800546046890F866
:10449000BD343BB3032385F8BD34E36B13F4807F55
:1044A00001D100232B61286802F054FB2C4654F8FC
:1044B000106BEC460FCCACE80F000FCCACE80F0053
:1044C00094E803008CE803002B1D0ECB304602F06D
:1044D00083FA044658B1022385F8BD3401242046EE
:1044E0000AB070BD80F8BC3406F0A8F9D2E700210C
:1044F000286803F02BF8234616E003EBC30205EB14
:104500008202012182F83D1082F83C30A2F844304A
:10451000002182F840109164D16403EBC30205EBE3
:10452000820251650133DBB269688B42E5D316E044
:1045300004EBC40305EB8303002283F87D2283F898
:104540007C4283F88022C3F88822C3F88C2204EBD3
:10455000C40305EB8303C3F894220134E4B2A142FF
:10456000E6D82C4654F8106BEC460FCCACE80F00A4
:104570000FCCACE80F0094E803008CE803002B1D7F
:104580000ECB304602F042FB044620B1022385F8F0
:10459000BD340124A3E7002385F83830012385F8D2
:1045A000BD34286802F08FFF99E7012497E702687D
:1045B00090F8BC34012B19D010B50446012380F8C3
:1045C000BC34836A012B09D0206802F0BDFA206850
:1045D00002F06BFF002084F8BC0410BD8369012B3E
:1045E000F2D0936B43F480339363EDE7022070477E
:1045F00070B504460D460068066C00EB411303F5E8
:1046000030639A682169012911D038498E4256D009
:104610003DB905EBC50304EB8303D3F89432002BBB
:104620005ED0E9B2204606F053F9002070BD12F0CA
:10463000080F09D02E498E42F7D912F4004FF4D05A
:104640004FF400429A60F0E712F0200F02D02022CF
:104650009A60EAE712F0280FE7D125498E4206D981
:1046600012F4004F03D04FF400429A60DDE705EBEF
:10467000C50204EB8202D2F898121B69C3F312033D
:10468000CB1AC2F89C327DB905EBC50204EB82025D
:10469000D2F894226AB105EBC50204EB8202D2F88B
:1046A0008C120B44C2F88C32E9B2204606F010F9A5
:1046B000BBE704F2C442012102F08AFFF4E712F4DE
:1046C000004F03D04FF400429A60AEE712F0200F83
:1046D00001D020229A60E9B2204606F0F9F8A4E75A
:1046E00004F2C442002102F073FF9AE70A31544FEA
:1046F0000A30544F38B5044603681D6C03EB411370
:10470000D3F8081B0E4A954207D903F5306311F41C
:10471000004F02D04FF400429A60204606F0D0F8D5
:10472000074B9D4202D92369012B01D0002038BDDF
:1047300004F2C4420121206802F04AFFF6E700BFFC
:104740000A30544F90F8BC34012B0DD010B50446FC
:10475000012380F8BC3480F83810006802F095FE20
:10476000002084F8BC0410BD0220704738B505460F
:104770008C4611F0800F29D101F00F0E0EEBCE0404
:10478000A40004F51E740444211D0EEBCE0E00EBB4
:104790008E0E00208EF87D020CF00F0C81F800C008
:1047A000CA600B714A780AB1A1F808C0022B1DD06B
:1047B00095F8BC34012B1CD0012385F8BC34286843
:1047C00002F0FDFA002085F8BC0438BD01F00F00AE
:1047D00000EBC001890038312944043100EBC000EE
:1047E00005EB8000012480F83D40D5E700234B71A4
:1047F000DEE70220E9E710B504460A4611F0800F13
:1048000020D101F00F0000EBC0039B0003F51E73E5
:104810002344191D00EBC00004EB8000002380F846
:104820007D3202F00F020A7094F8BC34012B19D0CB
:10483000012384F8BC34206802F010FB002084F8C7
:10484000BC0410BD01F00F0000EBC0039B00383327
:104850002344191D00EBC00004EB8000012380F805
:104860003D30DEE70220ECE710B501F00F0404EB69
:10487000C401890001F51E710144043104EBC40C2C
:1048800000EB8C0CCCF88C22CCF894320023CCF8C2
:104890009C328CF87D328CF87C420369012B06D067
:1048A00064B9DAB2006802F049FB002010BD04EBE5
:1048B000C40C00EB8C0CCCF89022F1E7DAB2006863
:1048C00002F044FCF1E701F00F0101EBC10100EB44
:1048D0008101D1F89C02704710B501F00F0404EB80
:1048E000C401890038310144043104EBC40C00EBED
:1048F0008C0CCCF84C20CCF854300023CCF85C3035
:1049000001238CF83D308CF83C400369012B06D024
:1049100064B9DAB2006802F011FB002010BD04EBAC
:10492000C40C00EB8C0CCCF85020F1E7DAB2006834
:1049300002F00CFCF1E738B501F00F054268954232
:1049400039D804460B4611F0800F1FD101EBC1018D
:10495000890001F51E710144043103EBC30300EB30
:104960008303002283F87D2201238B700D7094F85D
:10497000BC34012B21D0012384F8BC34206802F020
:1049800029FD8DB1002084F8BC0438BD05EBC501BC
:10499000890038310144043105EBC50300EB830382
:1049A000012283F83D20DFE704F2C442217C206825
:1049B00002F00EFEE6E70120E7E70220E5E701F05E
:1049C0000F034268934231D810B5044611F0800FAE
:1049D0001ED103EBC301890001F51E7101440431AE
:1049E00003EBC30200EB8202002082F87D0200226A
:1049F0008A700B7094F8BC34012B19D0012384F811
:104A0000BC34206802F013FD002084F8BC0410BD03
:104A100003EBC301890038310144043103EBC302C5
:104A200000EB8202012082F83D00E0E701207047A0
:104A30000220ECE708B511F0800F0CD101F00F0156
:104A400001EBC101890001F51E71014404310068C8
:104A500002F006FB08BD01F00F0101EBC101890066
:104A6000383101440431F2E72DE9F04F83B00446B8
:104A70000568284602F066FD10B103B0BDE8F08F6E
:104A80000646206802F02DFD0028F6D005F50067E7
:104A9000BB68C3F30D23C4F8FC34206802F021FD89
:104AA00010F0020F04D02268536903F0020353612F
:104AB000206802F016FD10F0100F13D022689369E1
:104AC00023F010039361D5F8208008F00F09C8F394
:104AD0004343022B4BD0062B6FD02268936943F0DF
:104AE00010039361206802F0FCFC10F4002F76D1D3
:104AF000206802F0F6FC10F4802F40F0E08020687F
:104B000002F0EFFC0028C0F26381206802F0E9FCAB
:104B100010F4006F09D0BB6813F0010F40F07081F2
:104B20002268536903F400635361206802F0D9FCE2
:104B300010F4805F40F06881206802F0D2FC10F42D
:104B4000005F40F0B581206802F0CBFC10F0080F48
:104B500040F0C681206802F0C4FC10F0800F00F025
:104B6000D981AB6923F08003AB610126C2E147F62E
:104B7000F07318EA030FB0D04FEA181B4FEAC903CD
:104B8000019309EBC90A04EB8A0AC8F30A12DAF89E
:104B90008C12284602F0F4FBCBF30A0BDAF88C32C5
:104BA0005B44CAF88C32019B4B4404EB8303D3F87B
:104BB0009C325B44CAF89C328FE7082204F2C4415D
:104BC000284602F0DDFBC8F30A1809EBC90204EB22
:104BD0008202D2F89C324344C2F89C327DE72068BE
:104BE00002F083FC8046B14635E005EB4913012213
:104BF000C3F8082B49462046FFF7FAFC3CE005EBDA
:104C000049130822C3F8082B49462046FFF772FDD6
:104C100035E009EBC90304EB830393F87F32012BE2
:104C200041D005EB49130222C3F8082B1AF0200FDC
:104C300004D005EB49132022C3F8082B1AF4005FB7
:104C400005D005EB49134FF40052C3F8082B09F1C6
:104C500001094FEA5808B8F1000F3FF449AF18F0C6
:104C6000010FF4D05FFA89FB5946206802F04DFC31
:104C7000824610F0010FB8D11AF0080FBFD11AF018
:104C8000100F04D005EB49131022C3F8082B1AF0BB
:104C9000020FCBD06B6913F0800FBAD07B6843F45E
:104CA00080637B60B5E709EBC90304EB8303002253
:104CB00083F87F225946204605F05CFEB1E7206864
:104CC00002F01BFC8046B14625E05946204605F01F
:104CD0000BFE1AF0080F04D005EB49130822C3F8A5
:104CE00008291AF0100F04D005EB49131022C3F85D
:104CF00008291AF0400F04D005EB49134022C3F8ED
:104D000008291AF0020F40D11AF0800F5BD109F187
:104D100001094FEA5808B8F1000F3FF4F0AE18F05F
:104D2000010FF4D05FFA89FB5946206802F0F6FBC8
:104D3000824610F0010FCCD009F00F03012101FAD7
:104D400003F27B6B23EA02037B6305EB4913C3F891
:104D5000081923698B42B8D109EBC90304EB83031B
:104D6000996CDA6C0A44DA64B9F1000FADD109EB41
:104D7000C90304EB83035B6D002BA6D104F2C4428C
:104D80000121206802F024FC9FE74946284601F0F3
:104D9000E7FE09EBC90304EB830393F83F30012BD3
:104DA00005D005EB49130222C3F80829ACE709EB4B
:104DB000C90304EB8303002283F83F2059462046B1
:104DC00005F0DEFDEDE749462046FFF7F1FA9EE7E4
:104DD0007B6823F001037B6094F8F434012B08D046
:104DE000204605F0C1FD2268536903F0004353617A
:104DF0008BE6002184F8F414204600F041F9F2E734
:104E0000204605F099FD8BE67B6823F001037B606B
:104E10001021206801F0A4FE1AE005EB46134FF6BE
:104E20007F31C3F80819D3F8002922F40012C3F81F
:104E30000029C3F8081BD3F8002B22F40012C3F892
:104E4000002BD3F8002B42F00062C3F8002B013690
:104E50006368B342E1D8FB6943F00113FB61236B44
:104E6000DBB1D7F8843043F00B03C7F884307B6C98
:104E700043F00B037B64D5F8003823F4FE63C5F8D8
:104E8000003804F2C442217C206802F0A1FB2268B1
:104E9000536903F4805353614EE67B6943F4005336
:104EA00043F02B037B613B6943F00B033B61E2E77B
:104EB000206802F07CFB206801F070FFE06026684B
:104EC00000F0DEFB0146227B304601F0CBFD2046A0
:104ED00005F01BFD2268536903F40053536132E669
:104EE000204605F00CFD2268536903F00803536166
:104EF00030E601366368B3420CD906EBC60304EB17
:104F0000830393F87F32012BF3D1F1B22046FFF7F0
:104F100091FDEEE7206802F0E4FA10F4801F27D13B
:104F2000206802F0DEFA10F4001F5BD0012328E0B5
:104F300001366368B3421DD905EB4613D3F8002947
:104F400006EBC60304EB830393F84030012BEFD14B
:104F5000002AEDDA06EBC60304EB8303012283F893
:104F60003F2066F07F01C9B22046FFF763FDDFE70F
:104F70000126DEE72268536903F480135361CFE70B
:104F8000013362689A4228D905EB4312D2F8001B1C
:104F900003EBC30204EB820292F88022012AEFD1D4
:104FA0000029EDDA01F48031D4F8FC2402F001028A
:104FB0009142E5D103EBC30204EB8202012182F8A6
:104FC0007F12AA6942F08002AA616A6912F0800F1A
:104FD000D6D17B6843F400737B602268536903F485
:104FE00000135361206802F07CFA10F0804F10D15A
:104FF000206802F076FA10F0040F3FF43EAD23680B
:105000005D6815F0040F0DD1226853682B4353607F
:1050100033E5204605F0BAFC2268536903F080436B
:105020005361E5E7204605F0B7FCEDE710B40468EE
:10503000606A31B940EA0240A06200205DF8044B8A
:1050400070478C46A36A00EB1340002308E003F18D
:10505000400104EB8101496800EB11400133DBB2F0
:105060000CF1FF318B42F2D340EA02400CF13F01D8
:1050700004EB81014860E0E7036859620020704753
:1050800070470000002800F0E08170B582B004464F
:10509000036813F0010F3BD09F4B9B6803F00C0398
:1050A000042B2CD09C4B9B6803F00C03082B21D0C5
:1050B0006368B3F5803F4FD0B3F5A02F52D0964B25
:1050C0001A6822F480321A601A6822F480221A6068
:1050D0006368002B50D0FEF733F905468E4B1B68F2
:1050E00013F4003F14D1FEF72BF9401B6428F5D9C7
:1050F0000320B1E1884B5B6813F4800FD8D0864B56
:105100001B6813F4003F03D06368002B00F09F81FD
:10511000236813F0020F54D07F4B9B6813F00C0FE1
:105120003ED07D4B9B6803F00C03082B33D0E36823
:10513000002B68D0794B01221A60FEF701F9054671
:10514000754B1B6813F0020F54D1FEF7F9F8401BA2
:105150000228F5D903207FE16F4A136843F48033B6
:105160001360B5E76C4B1A6842F480221A601A6823
:1051700042F480321A60ABE7FEF7E2F80546664B70
:105180001B6813F4003FC3D0FEF7DAF8401B642815
:10519000F5D9032060E1604B5B6813F4800FC6D142
:1051A0005D4B1B6813F0020F03D0E368012B40F046
:1051B0005081594A136823F0F803216943EAC10377
:1051C0001360236813F0080F42D063696BB3534B2D
:1051D0000122C3F8802EFEF7B3F805464E4B5B6FF5
:1051E00013F0020F34D1FEF7ABF8401B0228F5D9BB
:1051F000032031E1484A136823F0F803216943EAA8
:10520000C1031360DDE7454B00221A60FEF798F8F2
:105210000546414B1B6813F0020FD2D0FEF790F801
:10522000401B0228F5D9032016E13C4B0022C3F8AD
:10523000802EFEF785F80546374B5B6F13F0020FA3
:1052400006D0FEF77DF8401B0228F5D9032003E1C4
:10525000236813F0040F77D02F4B1B6C13F0805F83
:1052600033D1002301932C4B1A6C42F080521A6404
:105270001B6C03F080530193019B0125284B1B6895
:1052800013F4807F23D0A368012B34D0052B38D0B2
:10529000214B1A6F22F001021A671A6F22F00402E2
:1052A0001A67A368002B3DD0FEF74AF806461A4B52
:1052B0001B6F13F0020F46D1FEF742F8801B41F23C
:1052C00088339842F3D90320C6E00025D6E7144A74
:1052D000136843F480731360FEF732F80646104BF0
:1052E0001B6813F4807FCED1FEF72AF8801B0228BA
:1052F000F5D90320B0E0084A136F43F001031367A8
:10530000CFE7054B1A6F42F004021A671A6F42F09A
:1053100001021A67C5E700BF00380240000047429B
:1053200000700040FEF70CF80646524B1B6F13F05E
:10533000020F08D0FEF704F8801B41F28833984230
:10534000F3D9032088E0EDB9A369002B00F0838036
:10535000484A926802F00C02082A51D0022B17D05A
:10536000454B00221A66FDF7EBFF0446414B1B68D4
:1053700013F0007F42D0FDF7E3FF001B0228F5D9B0
:10538000032069E03B4A136C23F080531364DBE78E
:10539000394B00221A66FDF7D3FF0546354B1B68D3
:1053A00013F0007F06D0FDF7CBFF401B0228F5D994
:1053B000032051E0E369226A1343626A43EA8213DD
:1053C000A26A5208013A43EA0243E26A43EA0263EC
:1053D000284A5360284B01221A66FDF7B1FF0446A4
:1053E000244B1B6813F0007F06D1FDF7A9FF001BBB
:1053F0000228F5D903202FE000202DE000202BE02B
:10540000012B2BD01B4B5B6803F48001E2699142B6
:1054100026D103F03F02216A8A4223D1616A47F60E
:10542000C0721A40B2EB811F1ED103F44031A26A50
:105430005208013AB1EB024F18D103F07063E26AEF
:10544000B3EB026F14D1002006E001207047012069
:1054500002E0012000E0002002B070BD0120FBE767
:105460000120F9E70120F7E70120F5E70120F3E744
:105470000120F1E7003802400000474208B5254B03
:105480009B6803F00C03042B3FD0082B3FD1214B2A
:105490005A6802F03F025B6813F4800F12D01D4B74
:1054A0005968C1F388111C480023A1FB0001FBF7D8
:1054B0006DFB184B5B68C3F3014301335B00B0FB2A
:1054C000F3F025E0134B5968C1F3881C4FEA4C11E7
:1054D000B1EB0C006EEB0E0E4FEA8E1343EA9063B5
:1054E0008101091A63EB0E03DB0043EA5173C90023
:1054F00011EB0C0C43F10003990200234FEA8C20BE
:1055000041EA9C51FBF742FBD3E7034800E0034824
:1055100008BD00BF00380240001BB7000024F400A3
:10552000002800F09B8070B50D4604464F4B1B6869
:1055300003F007038B4208D2CBB24C4A13701368B6
:1055400003F007038B4240F08B80236813F0020FB7
:1055500017D013F0040F04D0454A936843F4E05386
:105560009360236813F0080F04D0414A936843F412
:10557000604393603E4A936823F0F003A1680B43B5
:105580009360236813F0010F32D06368012B21D0A0
:105590009A1E012A25D9364A126812F0020F61D0EC
:1055A00033498A6822F0030213438B60FDF7C8FE7B
:1055B00006462F4B9B6803F00C036268B3EB820F27
:1055C00016D0FDF7BDFE801B41F288339842F0D91A
:1055D000032042E0264A126812F4003FE0D1012085
:1055E0003BE0234A126812F0007FD9D1012034E059
:1055F0001E4B1B6803F00703AB4207D9EAB21B4BF3
:105600001A701B6803F00703AB422DD1236813F017
:10561000040F06D0164A936823F4E053E1680B4365
:105620009360236813F0080F07D0114A936823F49E
:105630006043216943EAC1039360FFF71FFF0C4BEE
:105640009B68C3F303130B4AD35CD8400A4B186022
:105650000A4B1868FDF776F9002070BD01207047ED
:105660000120FAE70120F8E70120F6E7003C0240BC
:10567000003802409C3A0108000000200800002089
:10568000014B1868704700BF0000002008B5FFF705
:10569000F7FF044B9B68C3F38223034AD35CD840D3
:1056A00008BD00BF00380240AC3A010808B5FFF75A
:1056B000E7FF044B9B68C3F34233034AD35CD840F3
:1056C00008BD00BF00380240AC3A01080F23036058
:1056D0000B4B9A6802F0030242609A6802F0F002F3
:1056E00082609A6802F4E052C2609B68DB0803F4AF
:1056F000E0530361034B1B6803F007030B60704723
:1057000000380240003C024000285AD010B5044640
:10571000436A33B94368B3F5827F05D00023C36180
:1057200002E00023036143610023A36294F8513037
:10573000002B40D0022384F851302268136823F0F4
:1057400040031360636803F48273A26802F40442A6
:105750001343E26802F400621343226902F002027A
:105760001343626902F001021343A26902F400725A
:105770001343E26902F038021343226A02F0800206
:105780001343A26A02F40052216813430B60638B37
:1057900003F00403626A02F01002216813434B60B5
:1057A0002268D36923F40063D3610020606501237C
:1057B00084F8513010BD84F850302046FDF754F87D
:1057C000B8E701207047000030B4036A23F00103FA
:1057D0000362036A4268846924F073040D682C43F1
:1057E00023F0020C8B6843EA0C03104DA84203D04F
:1057F00005F58065A84205D123F00803CD682B4349
:1058000023F00403094DA84203D005F58065A842A2
:1058100005D122F440724D692A438D692A434260C2
:1058200084614A684263036230BC704700000140F3
:1058300030B4036A23F480730362036A4268C46964
:1058400024F0730C0C6844EA0C0523F400738C6894
:1058500043EA0423114CA04203D004F58064A04223
:1058600006D123F40063CC6843EA042323F4806365
:105870000A4CA04203D004F58064A04207D122F470
:1058800040524C6942EA04128C6942EA04124260B6
:10589000C5614A68C263036230BC704700000140C2
:1058A00030B4036A23F480530362036A4468C26914
:1058B00022F4E6420D6842EA052223F400538D6883
:1058C00043EA0533094DA84203D005F58065A84297
:1058D00004D124F480444D6944EA85144460C261D3
:1058E0004A680264036230BC704700BF0000014098
:1058F00090F83D30DBB2012B32D1022380F83D30ED
:105900000368194A934220D0B3F1804F1DD0A2F50D
:105910007C42934219D002F58062934215D002F581
:105920008062934211D002F5784293420DD002F585
:105930007052934209D0A2F59432934205D01A686E
:1059400042F001021A60002070479A6802F00702D4
:10595000062A07D01A6842F001021A600020704738
:1059600001207047002070470000014090F83D3052
:10597000DBB2012B37D1022380F83D300268D368B7
:1059800043F00103D3600368194A934220D0B3F176
:10599000804F1DD0A2F57C42934219D002F580625F
:1059A000934215D002F58062934211D002F57842FD
:1059B00093420DD002F57052934209D0A2F5943271
:1059C000934205D01A6842F001021A600020704725
:1059D0009A6802F00702062A07D01A6842F001020C
:1059E0001A6000207047012070470020704700BFF8
:1059F00000000140704770477047704710B504467B
:105A000003681A6912F0020F11D0DA6812F0020F5F
:105A10000DD06FF002021A610123037703689B69BE
:105A200013F0030F70D0FFF7E6FF002323772368FE
:105A30001A6912F0040F12D0DA6812F0040F0ED0B7
:105A40006FF004021A610223237723689B6913F421
:105A5000407F5FD02046FFF7CEFF002323772368E7
:105A60001A6912F0080F12D0DA6812F0080F0ED07F
:105A70006FF008021A61042323772368DB6913F0AF
:105A8000030F4ED02046FFF7B6FF0023237723688D
:105A90001A6912F0100F12D0DA6812F0100F0ED03F
:105AA0006FF010021A61082323772368DB6913F46F
:105AB000407F3DD02046FFF79EFF002323772368D9
:105AC0001A6912F0010F03D0DA6812F0010F36D113
:105AD00023681A6912F0800F03D0DA6812F0800F81
:105AE00034D123681A6912F0400F03D0DA6812F03B
:105AF000400F32D123681A6912F0200F03D0DA6800
:105B000012F0200F30D110BDFFF774FF2046FFF7D1
